:100000000C9484040C94AC040C94AC040C94AC04D8
:100010000C94AC040C94AC040C94AC040C94AC04A0
:100020000C94AC040C94AC040C94600E0C94D20EA2
:100030000C94AC040C94AC040C94AC040C94AC0480
:100040000C94AC040C94AC040C94AC040C94AC0470
:100050000C94AC040C94AC040C94AC040C94C0064A
:100060000C94AC040C94AC040C94AC040C94AC0450
:100070000C94AC040C94AC040C94AC040C94AC0440
:100080000C94AC040C94AC040C94AC040C94AC0430
:100090000C94AC040C94AC040C94AC040C94AC0420
:1000A0000C94AC040C94AC040C94AC04040507054B
:1000B000F604FA04FE042805280528050B050F059B
:1000C000130519051D05280523057A057F058405F7
:1000D0008E059805E205E205E205A205AC05B60528
:1000E000C005CD05E205D505F0F89C8E8783878E87
:1000F0009CF8F00000FEFF0303030303070EFCF867
:100100000000FEFF0303030303070EFCF80000FFDB
:10011000FF00000000000000FFFF0000FEFF8383DF
:10012000838383C7EE7C380000F8FC0E07030303CB
:10013000070EFCF800003F7FE0C08080C0E07F3FFA
:10014000FFFF01010101010101FFFF0000FFFF0CA2
:100150000C0C0C1C3E77E3C100007FFFC0C0C0C088
:10016000C0E0703F1F00001F3F70E0C0C0C0E070E3
:100170003F1F00007FFFC1C1C1C1C1E3773E1C002A
:10018000001F3F70E0C0C0C0E0703F1F00000000D3
:100190000001FFFF01000000D5F08D14A1C881CF40
:1001A000D9F1AF200000387CFEFAF26438FE011964
:1001B00025A5251901FE01192525A59981FE01F91D
:1001C00009F102FE0101FE0000FE0101FEDF202018
:1001D0003F203F2020DF2020FF021CE1223FC02FD4
:1001E0002827203F2020C72828272020DF0001FEC5
:1001F0000000FE0101FF00003F40403F0000FF0003
:1002000000E745953750FF0000C629291000F81176
:100210002212F900F828F90292AAAA4A0209F80A59
:1002200002FBA88902FA29DA0291A8A84800000076
:1002300000000000000000000000000000110101AB
:100240000145010101110101014501010100C00049
:100250008020C000804000C02000C000801101014B
:1002600001450101011101010145010101C006F82B
:1002700000F00CE102FC00F804C004F800110101D8
:100280000145010101110101014501010100008049
:10029000800000800000808000008080005501AA5E
:1002A000005501AA015500AA015500AA010000004D
:1002B00080800000000080800000000000222211E9
:1002C0008888112222118888112222119100C000F1
:1002D000C000C000C000C000C000C000C0110101CB
:1002E0000145010101110101014501010100000069
:1002F00000000000000000000000000000011F20BE
:100300004180818081808180818041201F010204A1
:10031000081020408000000000003E5B4F5B3E3E26
:100320006B4F6B3E1C3E7C3E1C183C7E3C181C57A1
:100330007D571C1C5E7F5E1C00183C1800FFE7C345
:10034000E7FF0018241800FFE7DBE7FF30483A0614
:100350000E2629792926407F050507407F05253F80
:100360005A3CE73C5A7F3E1C1C08081C1C3E7F146C
:10037000227F22145F5F005F5F06097F017F0066B6
:1003800089956A606060606094A2FFA29408047E10
:10039000040810207E201008082A1C08081C2A08BF
:1003A000081E101010100C1E0C1E0C30383E383079
:1003B000060E3E0E06000000000000005F00000078
:1003C00007000700147F147F14242A7F2A122313A6
:1003D00008646236495620500008070300001C22BA
:1003E00041000041221C002A1C7F1C2A08083E08EC
:1003F00008008070300008080808080000606000ED
:1004000020100804023E5149453E00427F400072E0
:10041000494949462141494D331814127F10274557
:100420004545393C4A494931412111090736494975
:100430004936464949291E00001400000040340096
:10044000000008142241141414141400412214084A
:1004500002015909063E415D594E7C1211127C7F02
:10046000494949363E414141227F4141413E7F4910
:100470004949417F090909013E414151737F0808FB
:10048000087F00417F41002040413F017F08142246
:10049000417F404040407F021C027F7F0408107F64
:1004A0003E4141413E7F090909063E4151215E7F9F
:1004B00009192946264949493203017F01033F4072
:1004C00040403F1F2040201F3F4038403F631408FA
:1004D000146303047804036159494D43007F41418B
:1004E000410204081020004141417F04020102043E
:1004F0004040404040000307080020545478407FAB
:10050000284444383844444428384444287F3854E4
:1005100054541800087E090218A4A49C787F08048B
:10052000047800447D40002040403D007F10284476
:100530000000417F40007C047804787C0804047843
:100540003844444438FC1824241818242418FC7C0B
:1005500008040408485454542404043F44243C40F0
:1005600040207C1C2040201C3C4030403C44281053
:1005700028444C9090907C4464544C44000836418C
:10058000000000770000004136080002010204026A
:100590003C2623263C1EA1A161123A4040207A3815
:1005A0005454555921555579412154547841215578
:1005B00054784020545579400C1E527212395555CA
:1005C0005559395454545939555454580000457CA0
:1005D000410002457D420001457C40F0292429F07C
:1005E000F0282528F07C545545002054547C547C38
:1005F0000A097F4932494949323248484832324A29
:100600004848303A4141217A3A42402078009DA042
:10061000A07D39444444393D4040403D3C24FF24C2
:1006200024487E4943662B2FFC2F2BFF0929F620F7
:10063000C0887E090320545479410000447D413034
:1006400048484A32384040227A007A0A0A727D0DC0
:1006500019317D2629292F28262929292630484D78
:100660004020380808080808080808382F10C8ACC7
:10067000BA2F102834FA00007B000008142A142234
:1006800022142A14089500220095AA005500AAAA4F
:1006900055AA55AA000000FF00101010FF00141406
:1006A00014FF001010FF00FF1010F010F0141414CD
:1006B000FC001414F700FF0000FF00FF1414F40402
:1006C000FC141417101F10101F101F1414141F00F7
:1006D000101010F0000000001F101010101F10105C
:1006E0001010F010000000FF10101010101010106B
:1006F00010FF10000000FF140000FF00FF00001FAB
:1007000010170000FC04F414141710171414F40448
:10071000F40000FF00F714141414141414F700F775
:10072000141414171410101F101F141414F41410A0
:1007300010F010F000001F101F0000001F14000038
:1007400000FC140000F010F01010FF10FF1414143F
:10075000FF141010101F00000000F010FFFFFFFF3B
:10076000FFF0F0F0F0F0FFFFFF0000000000FFFFDF
:100770000F0F0F0F0F38444438447C2A2A3E147E52
:1007800002020606027E027E026355494163384436
:10079000443C04407E201E2006027E020299A5E70A
:1007A000A5991C2A492A1C4C7201724C304A4D4DA5
:1007B000303048784830BC625A463D3E494949008D
:1007C0007E0101017E2A2A2A2A2A44445F444440A9
:1007D000514A444040444A51400000FF0103E08038
:1007E000FF000008086B6B083612362436060F0926
:1007F0000F06000018180000001010003040FF0124
:1008000001001F01011E00191D1712003C3C3C3C59
:10081000000000000000000000240027002A002D36
:1008200000300000000000250028002B002E0031C1
:100830000004040404040304050202020204030287
:100840000202020606060606060404020202040468
:1008500004080201104080401020408040800802BF
:100860000401804020100201108010204040200030
:1008700000000200090F0000030401000C0000004A
:100880000000000000000000000000000000080B55
:10089000000202020100090400000102020000053A
:1008A0002400100105240101010424020605240688
:1008B00000010705810310004009040100020A003D
:1008C0000000070502024000000705830240000007
:1008D0000403090412010002EF02014041233680A3
:1008E00000010102030141726475696E6F204C4C76
:1008F000430041726475696E6F204C656F6E617262
:10090000646F00009B1C4E1C11241FBECFEFDAE069
:10091000DEBFCDBF12E0A0E0B1E0EAE5F9E402C03D
:1009200005900D92A034B107D9F728E0A0E4B2E019
:1009300001C01D92A53AB207E1F714E0C3E8D4E084
:1009400004C02197FE010E947A22C238D107C9F75C
:100950000E940E150C94A0240C940000CF92DF92FC
:10096000EF92FF920F931F93CF93DF936C017A0165
:100970008B01C0E0D0E0CE15DF0589F0D8016D9184
:100980008D01D601ED91FC910190F081E02DC60121
:100990000995892B11F47E0102C02196ECCFC70185
:1009A000DF91CF911F910F91FF90EF90DF90CF904B
:1009B0000895362F90E0FC01E159F74F4491FC0176
:1009C000E05BF74F2491FC01EF5CF74F84918823A3
:1009D00009F451C04423E1F150E0FA013197EF30BE
:1009E000F105B0F5EA5AFF4F0C947A2290918000FD
:1009F0009F7707C0909180009F7D03C090918000F9
:100A0000977F9093800024C094B59F7702C094B5DF
:100A10009F7D94BD1DC0909190009F7707C09091DD
:100A200090009F7D03C090919000977F90939000DD
:100A30000FC09091C0009F7703C09091C0009F7D30
:100A40009093C00005C09091C200977F9093C20020
:100A5000E82FF0E0EE0FFF1FED5DF74FA591B49189
:100A60008FB7F894EC91311103C020952E2301C06B
:100A70002E2B2C938FBF0895CF93DF93DB01482F4C
:100A800050E0FA01E05BF74F9491FA01EF5CF74F09
:100A90002491222399F030E0220F331FF901EB5EFD
:100AA000F74FC591D491F901ED5DF74F2591349140
:100AB0002FB7F894E881E92BE8832FBF109711F442
:100AC00060E004C0AF3FB10529F461E0DF91CF9150
:100AD0000C94D904FA01E159F74FE4914E2F50E0FC
:100AE000FA013197EF30F10508F06CC0EB59FF4F78
:100AF0000C947A2284B5806884BDA7BD68C084B593
:100B0000806284BDA8BD63C08091800080688093AE
:100B10008000B0938900A093880059C08091800024
:100B2000806280938000B0938B00A0938A004FC0B6
:100B300080918000886080938000B0938D00A093A6
:100B40008C0045C080919000806880939000B093A5
:100B50009900A09398003BC08091900080628093A0
:100B60009000B0939B00A0939A0031C080919000B8
:100B7000886080939000B0939D00A0939C0027C054
:100B80008091C00080688093C0008091C0008F7BFE
:100B90008093C000A093CF001AC08091C0008062F3
:100BA0008093C000A093D00012C08091C2008860E2
:100BB0008093C2008091C2008B7F8093C200A0937B
:100BC000D20005C0A038B1050CF07FCF79CFDF91FE
:100BD000CF9108950895089580E090E008950E94CF
:100BE0008B24CF93DF9300D000D0CDB7DEB7611553
:100BF00071058105910579F09B01AC0169833A8308
:100C00004B835C830E94B91E29813A814B815C81B0
:100C10000E94012003C060E070E0CB010F900F90B4
:100C20000F900F90DF91CF910895EF92FF920F9365
:100C30001F93CF93DF93EC01198218821B821A82D3
:100C40001D821C8261157105A9F17B01FB010190D8
:100C50000020E9F731978F01061B170BB8016F5F72
:100C60007F4F80E090E00E94C123009759F0998364
:100C700088831B830A832C813D81232B81F4FC0113
:100C800010820DC088819981009711F00E9429235C
:100C9000198218821D821C821B821A820BC01D833E
:100CA0000C83B701DF91CF911F910F91FF90EF90CF
:100CB0000C949924DF91CF911F910F91FF90EF90A9
:100CC00008953FB7F8948091530390915403A091F5
:100CD0005503B091560326B5A89B05C02F3F19F0C8
:100CE0000196A11DB11D3FBFBA2FA92F982F8827AC
:100CF000820F911DA11DB11DBC01CD0142E0660F07
:100D0000771F881F991F4A95D1F708958F929F9258
:100D1000AF92BF92CF92DF92EF92FF926B017C0174
:100D20000E9461064B015C01C114D104E104F1048D
:100D3000F1F00E946106DC01CB0188199909AA092A
:100D4000BB09883E9340A105B10570F321E0C21AAA
:100D5000D108E108F10888EE880E83E0981EA11CF6
:100D6000B11CC114D104E104F10419F7DDCFFF90E7
:100D7000EF90DF90CF90BF90AF909F908F900895AD
:100D80001F920F920FB60F9211242F933F938F93C0
:100D90009F93AF93BF938091400290914102A091A5
:100DA0004202B09143023091520323E0230F2D37CA
:100DB00020F40196A11DB11D05C026E8230F02965F
:100DC000A11DB11D209352038093400290934102D4
:100DD000A0934202B0934302809153039091540335
:100DE000A0915503B09156030196A11DB11D8093AA
:100DF000530390935403A0935503B0935603BF91AC
:100E0000AF919F918F913F912F910F900FBE0F90B7
:100E10001F9018952D9A0895BC0180E090E00C94E5
:100E200086068FB12CB193B130E0209530952074B7
:100E30003327A90123E0559547952A95E1F7292FF6
:100E400030E02095309520713327359527953595DD
:100E50002795242B8095807F822B0895EF92FF9217
:100E60001F93CF93DF931F92CDB7DEB7162FEE24DB
:100E7000EA94F12CB701681B71098AE049830E944A
:100E80003C05B701611B71098BE00E943C0549815B
:100E9000B701641B710989E00F90DF91CF911F9119
:100EA000FF90EF900C943C0583B7817F83BF83B79D
:100EB000816083BF889583B78E7F83BF08958EBD81
:100EC00000000DB407FEFDCF089560387105D0F421
:100ED00040345105B8F4EDE0F3E080E1849FD001A7
:100EE000A0781124A60F4770E40FF11D8491A1583A
:100EF000BC4F222319F06C91862B03C080956C9116
:100F000086238C9308952F923F924F925F926F9217
:100F10007F928F929F92AF92BF92CF92DF92EF9289
:100F2000FF920F931F93CF93DF93CDB7DEB729972F
:100F30000FB6F894DEBF0FBECDBFFC016A3069F476
:100F4000248D808D918D38E0239F800D911D11247B
:100F5000918F808F178A168AAAC06D3009F4A7C0B6
:100F600099878887F48C338C228C608C718C0689ED
:100F7000178900381105C4F0A885B9855C962C91B5
:100F80005C97422F50E056968D919C915797B6E012
:100F90002B9F800D911D1124E885F985978B868BF9
:100FA000258D21116EC083C0F0E46F16710424F703
:100FB000C80125E0F29E800D911D11241816190616
:100FC000DCF68F2D90E09C838B83C301A8E0FA9E12
:100FD000800D911D11241816190674F6B5E06B9F4B
:100FE000B0011124FB01EB5EFC4FFA83E98330E092
:100FF0008885998504969E838D83E981FA81E490A2
:10100000353009F4E12C430188E0482EE0FC02C0B1
:10101000532C01C0522C51100BC0321009C0E69461
:101020004A948B819C81880E991E4110EFCF1BC082
:1010300068018C2D801B8F1590F754018A2D88191B
:101040008F1568F4252DA501B6018D819E813F8302
:101050000E9465079FEFA91AB90A3F81EFCFAFEF52
:10106000CA1ADA0AE6CF3F5FEB81FC810E0F1F1F21
:1010700089819A8101969A838983363009F0BDCFA0
:101080007BCF6AEF64039001659F300D11242058D7
:101090003F4F281739075CF4A885B985ED91FC917D
:1010A00011970190F081E02D6AE0CD01099581E072
:1010B00090E029960FB6F894DEBF0FBECDBFDF914A
:1010C000CF911F910F91FF90EF90DF90CF90BF9045
:1010D000AF909F908F907F906F905F904F903F90D8
:1010E0002F9008954F925F926F927F928F929F926E
:1010F000AF92BF92CF92DF92EF92FF920F93CF9376
:10110000DF93C12CD12CE12CF12C30E1A32EB12C9A
:1011100049E1442E512C54E2852E912C60913708E0
:10112000709138088091390890913A080E947A218C
:101130002091480230914902C901860F971FEC01A6
:1011400097FD2F9624E0D595C7952A95E1F7CE0D0A
:10115000DF1DB5010E9466223601681A790ACE01A8
:10116000CF3FD10519F014F08FEF90E0FC01EE5A5B
:10117000FD4F408120E2429FA0011124435D5D4F5D
:1011800000E120E160E370E0C3010E94CD111C1674
:101190001D060CF04AC08091510290E0C817D90793
:1011A0000CF043C0CE01B2010E946622892BE9F502
:1011B000C436D10514F448E101C04DE104E02BE050
:1011C00062E270E0C30106970E94C013C301C436F7
:1011D000D10514F0089601C0059621E04BE06DE2C0
:1011E00070E00E94941360913708709138088091E4
:1011F000390890913A080E947A2120914802309152
:101200004902C901860F971FB5010E946622960107
:10121000281B390B309396072093950790929807D7
:1012200080929707CE010E945313809144029091BF
:101230004502C817D90721F5E301289621E04EE1C0
:101240006AE170E0CE010E94941334E1630E711CD8
:101250002EE130E0A3016AE170E0CE010E94D00DE2
:1012600022E230E0AE016EE170E0C3010E94D00DD9
:101270002AE130E0AE0162E270E0CE010E94D00DC2
:101280008FEFE81AF80A20E1C20ED11C39E0E3160C
:10129000F10409F043CFDF91CF910F91FF90EF90D0
:1012A000DF90CF90BF90AF909F908F907F906F9086
:1012B0005F904F9008956091370870913808809141
:1012C000390890913A080E947A21603F2FE0720716
:1012D00074F49B01205F3F4F37FF02C0215F3F4FF7
:1012E000C90124E0959587952A95E1F702C08FEF13
:1012F00090E0FC01EE5AFD4F808190E00895FF924E
:101300000F931F93CF93DF936091460170E080E0CD
:1013100090E0611571058105910511F00E94BE1ED6
:101320006EEB70E080E090E00E94F105645C7F4F1E
:101330008F4F9F4F0E94CE1E0E94B0210E947A21A3
:10134000609344027093450287E080934F0289EFD7
:10135000860F80935102615060934E0200E010E0CE
:101360006AE070E0C0E0D0E0FF24F3948091440292
:10137000909145028C179D0714F400E010E0FE01E7
:10138000EE5AFD4F00836150710909F040C065E0DD
:1013900070E080E090E00E94F1050E94CE1E0E9465
:1013A000B0210E947A210617170789F38B01643058
:1013B000710551F42196FE01EE5AFD4FF08264E072
:1013C00070E080E090E01BC06115710541F0633072
:1013D000710589F463E070E080E090E010C06CE09B
:1013E00070E080E090E00E94F105DC01CB01069600
:1013F000A11DB11D0BC067E070E080E090E00E948D
:10140000F105DC01CB010396A11DB11DBC012196A4
:10141000CF3FD1050CF4AACF109251038091510215
:1014200090E020914E0230E045E02817390734F073
:10143000FC01EE5AFD4F40830196F7CF80914402A4
:1014400090914502FC01EE5AFD4F26E02083109258
:101450003708109238081092390810923A0840E084
:1014600050E060E472E440933B0850933C08609382
:101470003D0870933E0821E020930001109247023E
:101480001092460266E470E00E946622072E000C6D
:10149000880B990B0E94CE1E0E94B02120E030E004
:1014A00040E050E40E949C200E9481216093500201
:1014B0000E94DE12109298071092970710929607DA
:1014C0001092950700E220E24DEA51E062E170E0FF
:1014D00080E090E00E94CD11C5E2D0E0D093960765
:1014E000C093950784E190E09093980780939707C5
:1014F00083EB91E00E945D136091460170E080E013
:1015000090E04AE00E94EB12D0939607C0939507B3
:101510008EE190E090939807809397078AEB91E093
:101520000E945D1380914402909145020E945313E2
:1015300080EC91E00E945D13D0939607C0939507CD
:1015400088E290E0909398078093970787EC91E06A
:101550000E945D136091500270E080E090E04AE0EC
:101560000E94EB120E94CC1268EB7BE080E090E0DE
:101570000E9486061092390110923801DF91CF91B6
:101580001F910F91FF9008950F931F93CF93DF93B7
:1015900044E660E080E00E942E070DE613E0C8EC10
:1015A000D0E0F80161918F01CE010E94F31F2196D6
:1015B000CA3DD105B1F740E060E080E0DF91CF9116
:1015C0001F910F910C942E070F931F93CF93DF93CE
:1015D00010923F0810924008109241081092420861
:1015E0001092430810924408109245081092460841
:1015F00080E090E0A0E4B2E480933B0890933C0844
:10160000A0933D08B0933E08C0914402D09145029A
:1016100060913708709138088091390890913A08A4
:101620000E947A219B01205F3F4F37FF02C0215F5C
:101630003F4FC90124E0959587952A95E1F7C81792
:10164000D907ACF460914F0870915008072E000C38
:10165000880B990B0E94CE1E609337087093380850
:101660008093390890933A080AE210E002C00EE134
:1016700010E08091380190913901019709F09CC0E8
:101680000E945B09069711F580E090E0ACE5B2E4BA
:1016900080933B0890933C08A0933D08B0933E088C
:1016A000BE0184E0660F771F8A95E1F766507109E5
:1016B000072E000C880B990B0E94CE1E60933708F2
:1016C000709338088093390890933A08C0E0D0E0CE
:1016D00020E04EE066E170E0CE010E949413219676
:1016E000CF37D105A9F740E866E170E080E090E0EF
:1016F0000E945F1340E864E270E080E090E00E94A6
:101700005F1310939607009395078AE190E09093FA
:101710009807809397070E311105E9F50E945B0940
:101720008630910589F026E1289FF001299FF00D70
:101730001124E256F84F44815581608171818FE711
:1017400097E00E94AE0430C0809100019091500259
:10175000C82FC91B813019F48CEC91E00AC0C1304C
:1017600059F028F0C23059F485EE91E002C08BEDBB
:1017700091E00E945D1318C08FED91E0FACF82EFE7
:1017800091E00E945D136C2F70E080E090E04AE0F1
:101790000E94EB1209C088EF91E00E945D1340E0C7
:1017A00060E08FEF0E942E070E94CC1260ED77E080
:1017B00080E090E00E9486060E945B092091000173
:1017C0000697C9F484E090E0909339018093380142
:1017D00080914601E82FF0E0E459FC4F20838F5FB1
:1017E000833108F081E080934601DF91CF911F9112
:1017F0000F910C94C40A2F5F2093000110923901BD
:1018000010923801DF91CF911F910F9108950F939E
:1018100060913B0870913C0880913D0890913E0892
:101820000E947A21E0914802F091490208E028E004
:1018300045EA51E08AE090E08E1B9F0B0E94CD119B
:101840000F910895FC0180915F03811103C08FEF18
:101850009FEF08959FB7F89482E08093E90020916C
:10186000F20030E01216130614F421E030E02115E6
:10187000310559F0289884E680935E038091F10049
:1018800080838091F200882319F09FBFC9010895D9
:101890008BE68093E800F9CF2FB7F89483E080932C
:1018A000E9009091E800892F807295FF04C0909123
:1018B000F20080E4891B2FBF089580916503811198
:1018C0000DC082E08093610384E0809362031092F4
:1018D00064031092630381E08093650381E693E0E3
:1018E0000895CF93DF931F92CDB7DEB76983DC01F4
:1018F000ED91FC910280F381E02D41E050E0BE01CA
:101900006F5F7F4F09950F90DF91CF91089583E02E
:101910008093E9008091F200882319F08AE3809394
:10192000E80008950E944C0C90E00895CF93DF9357
:101930001F92CDB7DEB7FC018485958597FD05C064
:101940002FEF3FEF358724870BC0CE0101960E9411
:10195000220C019719F4898190E002C08FEF9FEF6C
:101960000F90DF91CF9108950F931F93CF93DF9343
:101970001F92CDB7DEB78C01FC018485958597FF5A
:101980000EC0CE0101960E94220C019719F4298104
:1019900030E002C02FEF3FEFF80135872487F801D0
:1019A000848595850F90DF91CF911F910F910895B8
:1019B000FC018485958597FD0BC09FB7F89482E064
:1019C0008093E9008091F2009FBF90E00196089516
:1019D0009FB7F89482E08093E9008091F2009FBF66
:1019E00090E008958F929F92AF92BF92CF92DF9234
:1019F000EF92FF920F931F93CF93DF935C016B01E4
:101A00007A0180914501882309F45BC080915F03CE
:101A1000882309F456C080915D0380FF05C0809142
:101A2000E00082608093E000E70110E00AEF83E0CD
:101A3000882E9AE3992E2097D9F10E944C0C81119F
:101A40000AC0015009F43DC061E070E080E090E020
:101A50000E948606F0CF282F30E0C217D3070CF47F
:101A60008C2F4FB7F8948092E9009091E80095FF91
:101A70001DC0282F30E0C21BD30BF601982F9150C8
:101A800020F081918093F100FACFC20ED31E112372
:101A900019F09092E80009C08091E80085FD06C029
:101AA0009092E80011E0209709F010E04FBFC3CFFB
:101AB0001111C3CF5D9884E6809360031E141F0448
:101AC00044F081E090E0F5019383828380E090E030
:101AD00001C0C701DF91CF911F910F91FF90EF904F
:101AE000DF90CF90BF90AF909F908F900895DF923E
:101AF000EF92FF920F931F93CF93DF93D82E8A011B
:101B00007B01E40EF51EEB01CE15DF0571F0D7FE6B
:101B100003C0FE01849101C088810E94D3142196E4
:101B20008111F2CF8FEF9FEF01C0C801DF91CF91FC
:101B30001F910F91FF90EF90DF9008950F931F93E7
:101B4000CF93DF931F92CDB7DEB782E0898342E463
:101B500050E06EE878E080E80E94770D0E945D0C0E
:101B6000DC0112960D911C9113970115110569F076
:101B7000D801ED91FC910280F381E02DBE016F5FF1
:101B80007F4FC801099597FF07C089810F90DF91AA
:101B9000CF911F910F910895F80100851185E5CF30
:101BA0005F926F927F928F929F92AF92BF92CF92ED
:101BB000DF92EF92FF920F931F93CF93DF93EC018D
:101BC0008B017A01A901461B570B57FF03C05195A2
:101BD00041955109C7018C1B9D0B97FF03C091953F
:101BE00081959109552453948417950714F0512C2D
:101BF0000AC09E2D8F2D7901292F382F9C2F8D2FD4
:101C0000E801092F182FEC16FD0654F4902F812FB0
:101C10008901292F382F9C2F8D2FE701E92EF82ECF
:101C200037016C1A7D0A5901A01AB10AB7FE03C028
:101C3000B194A194B108630177FE03C08FEFC81A75
:101C4000D80AD594C7940217130714F08FEF01C078
:101C500081E0882E880F9908EC16FD06B4F021E08B
:101C6000552019F0AE01B80102C0A801BE0183E8F9
:101C700097E00E946507CA18DB08D7FE04C0080D6C
:101C8000191DC60CD71C2196E7CFDF91CF911F916C
:101C90000F91FF90EF90DF90CF90BF90AF909F900B
:101CA0008F907F906F905F900895209189072823EF
:101CB00029F490918807982381E009F480E0089541
:101CC0001F920F920FB60F9211248F939F938091C2
:101CD000E1009091E100937F9093E10083FF0FC0BA
:101CE0001092E90091E09093EB001092EC0092E3E7
:101CF0009093ED0010925F0398E09093F00082FFC4
:101D000020C093E09093E9009091F200992319F09C
:101D10009AE39093E80090916003992339F09091B1
:101D20006003915090936003992389F190915E0331
:101D3000992339F090915E03915090935E0399231B
:101D400041F184FF10C08091E2008E7E816080931B
:101D5000E2008091E1008F7E8093E10080915D033D
:101D60008E7E806111C080FF16C08091E2008E7E61
:101D700080618093E2008091E1008E7E8093E1009B
:101D800080915D038E7E816080935D0304C05D9AC7
:101D9000CDCF289AD6CF9F918F910F900FBE0F90E5
:101DA0001F9018951F920F920FB60F921124CF9289
:101DB000DF92EF92FF920F931F932F933F934F93D6
:101DC0005F936F937F938F939F93AF93BF93EF93A3
:101DD000FF93CF93DF93CDB7DEB76C97DEBFCDBF58
:101DE0001092E9008091E80083FFEDC168E0CE0128
:101DF00045960E94011582EF8093E8008D8987FF48
:101E000005C09091E80090FFFCCF03C09EEF909337
:101E1000E800982F907609F0C6C09E892F89188D0A
:101E200091110CC0803829F480915C038093F100FB
:101E300002C01092F1001092F10048C1422F50E010
:101E4000512B913051F4811141C14130510509F0BC
:101E50003DC180915C038D7F0BC0933061F4811193
:101E600035C14130510509F031C180915C03826078
:101E700080935C032BC1953041F48091E80080FF92
:101E8000FCCF20682093E30021C1963009F05FC0A9
:101E9000EB8CFC8C1092E90010925A0310925903BB
:101EA000123091F510925803109257030E949E0D24
:101EB00099E0BE016F5F7F4FDB01E92F1D92EA952C
:101EC000E9F799831A8391E09E8390EA98879AEFC5
:101ED00099872091590330915A03275F3F4F3C83E4
:101EE0002B838D831092E90010925A0310925903AC
:101EF000F0925803E092570349E050E080E00E94DE
:101F0000770D0E949E0DE2C0F0925803E0925703B5
:101F10000E945D0CDC011296ED90FC901397E11489
:101F2000F10409F4C0C0D701ED91FC910480F58162
:101F3000E02DBE016B5E7F4FC7010995009719F038
:101F40000CF0C4C0C7C0F701E084F184E8CF97303B
:101F500009F4C0C0983021F481E08093F100B6C04C
:101F6000993009F0B3C0837009F0B4C0E2E5F1E044
:101F700081E021E036E39081992361F08093E900CC
:101F80002093EB0091919093EC003093ED008F5FE4
:101F9000873089F78EE78093EA001092EA008F89F4
:101FA00080935F0393C08B8D9C8D1092E9001092FB
:101FB0005A03109259039093580380935703898DC5
:101FC000811156C08E899D89913A59F4813209F068
:101FD00081C047E050E06EE371E080E00E94770D41
:101FE00075C0913209F076C0833289F4888D90E013
:101FF000982F88272F89822BA0E0B0E080933A01A8
:1020000090933B01A0933C01B0933D015FC08032AF
:1020100069F48091E80082FFFCCF67E08EE391E0F5
:102020000E9401158BEF8093E80006C0823209F010
:102030004DC08F898093450180915B03882319F0FF
:10204000EEEFFAE002C0E0E0F8E080913E0190910E
:102050003F01A0914001B0914101803B9440A10516
:10206000B10509F07BC08091450180FF93C076C027
:102070000E945D0CDC0112960D911C9113970115C5
:10208000110541F1D801ED91FC910190F081E02D15
:10209000BE016B5E7F4FC8010995811117C0F80121
:1020A00000851185ECCF113009F44EC0133091F446
:1020B0008F89882309F445C0823081F440E860E1CB
:1020C00082EF98E00E945E1C882321F08EEF8093BF
:1020D000E80079C081E28093EB0075C0813029F47B
:1020E00040E86BE086EE98E0EDCF833099F70E94F0
:1020F0005D0CDC011296ED90FC9013978E010F5F42
:102100001F4F6801E114F10479F0D701ED91FC91C2
:102110000680F781E02DB801C7010995080F111D50
:10212000F701E084F184EECFD8011C92F601019012
:102130000020E9F73197BF016C197D0940E0C60125
:10214000C1CF60ED78E002C064ED78E06115710503
:1021500009F2FB01449150E080E840CF0FB6F894BB
:10216000A895809160008861809360001092600063
:102170000FBEA895EE3F2AE0F20739F08091FE0AE3
:102180009091FF0A91838083A1CF1092FF0A109251
:10219000FE0A9CCFEE3F8AE0F80731F08081918102
:1021A0009093FF0A8093FE0A87E797E791838083E5
:1021B0009BE088E10FB6F894A895809360000FBE6D
:1021C0009093600083CF6C960FB6F894DEBF0FBE7D
:1021D000CDBFDF91CF91FF91EF91BF91AF919F91D3
:1021E0008F917F916F915F914F913F912F911F91AF
:1021F0000F91FF90EF90DF90CF900F900FBE0F9058
:102200001F901895009769F0FC0101900020E9F7F4
:102210003197AF01481B590BBC018FE797E00C9435
:10222000AE0480E090E008952F923F924F925F922B
:102230006F927F928F929F92AF92BF92CF92DF92D6
:10224000EF92FF920F931F93CF93DF937C016B016B
:10225000C42FD0E081E090E05C01AC1ABD0A662496
:1022600077246C1A7D0A660C771C00E010E0882445
:102270008394912C822F8470282E822F8270482E76
:10228000822F8870382E2170522E0C171D070CF0EB
:1022900071C0B7FC06C0219782E0680E711CA60CC5
:1022A000B71C0F5F1F4F82E0880E911CA80CB91C51
:1022B0002220B1F021E0A6014C0F5D1FB8016E0D88
:1022C0007F1D83E897E00E94650721E0A8014C0D7F
:1022D0005D1DB7016C0F7D1F83E897E00E946507C5
:1022E0004420B1F021E0A6014C1B5D0BB8016E0D3E
:1022F0007F1D83E897E00E94650721E0A601401B4F
:10230000510BB7016C0F7D1F83E897E00E946507B2
:102310003320B1F021E0A8014C0D5D1DB7016C1B0D
:102320007D0B83E897E00E94650721E0A6014C0F32
:102330005D1FB701601B710B83E897E00E94650782
:10234000552009F4A2CF21E0A601401B510BB70193
:102350006C1B7D0B83E897E00E94650721E0A601D6
:102360004C1B5D0BB701601B710B83E897E00E946B
:1023700065078BCFDF91CF911F910F91FF90EF9069
:10238000DF90CF90BF90AF909F908F907F906F9095
:102390005F904F903F902F9008952F923F924F92D1
:1023A0005F926F927F928F929F92AF92BF92CF92E5
:1023B000DF92EF92FF920F931F93CF93DF93CDB7EE
:1023C000DEB728970FB6F894DEBF0FBECDBF5A0117
:1023D000822E912C9C01280D391D37FDC4C08038F8
:1023E00091050CF0C0C09B01200F311D37FDBBC013
:1023F000603471050CF0B7C0AB0177FF04C044270F
:102400005527461B570B477055279B0177FF02C086
:10241000295F3F4FE3E035952795EA95E1F777FF90
:1024200008C02150310968E070E0DB01A41BB50B46
:10243000AD01602F66956695669570E0077011F0A6
:102440006F5F7F4FDB01A20FB31FBA83A9833901EE
:102450007694762C662477946794680E791EE12C26
:10246000F12C00E010E02301B0E84B0E511C68E0B5
:1024700070E0DB01A41BB50BBC83AB8369817A815F
:102480002617370709F46FC02830310509F46BC0EF
:102490002F3FBFEF3B070CF45BC0B201600F711F11
:1024A000DB01A158BC4FBE83AD83D801A60DB71D7B
:1024B000A158BC4F6C0160E070E0681579050CF024
:1024C00047C0E0E8CE16D10409F442C0D7FC34C0BE
:1024D0002F3FFFEF3F0709F442C0FB01EE0DFF1D48
:1024E000EA0DFB1DE491042E01C0EE0F0A94EAF7F9
:1024F0003C90E329EC9341155105F1F0273031056B
:10250000D9F0FB01EE0DFF1DEA0DFB1DE4912E2E0F
:10251000312CF1010B8002C0F595E7950A94E2F7A2
:10252000F887EF83ED81FE813080EF81F885E32924
:102530001F01ED81FE8120826F5F7F4FED81FE8163
:102540003196FE83ED83FFEFCF1ADF0A1196B5CFE8
:102550002F5F3F4F00581F4FE80CF91C8FCF4115DC
:10256000510579F6E9CF28960FB6F894DEBF0FBE75
:10257000CDBFDF91CF911F910F91FF90EF90DF9032
:10258000CF90BF90AF909F908F907F906F905F9013
:102590004F903F902F90089580917F038EBDE0E88B
:1025A000F3E081910DB407FEFDCF8EBD87E0EF37DC
:1025B000F807B9F70DB407FEFDCF089580E0EFE707
:1025C000F3E081118FEF00248193819381938193B4
:1025D0000394D1F708958F929F92AF92BF920F9379
:1025E0001F93CF93DF93CDB7DEB7A1970FB6F894C3
:1025F000DEBF0FBECDBF19A2423008F44AE08E0103
:102600000F5D1F4F842E912CA12CB12CA50194019C
:102610000E946A20E62FB901CA0101501109EA306F
:1026200014F4E05D01C0E95CD801EC93232B242B6A
:10263000252B61F7C8010E940211A1960FB6F894EC
:10264000DEBF0FBECDBFDF91CF911F910F91BF9025
:10265000AF909F908F900895CF92DF92EF92FF926C
:10266000CF93DF936B017C01E0917F07F0918007AE
:102670000190F081E02D6DE28FE797E00995EC0184
:1026800066277727CB016C197D098E099F094AE0DF
:102690000E94EB128C0F9D1FDF91CF91FF90EF9066
:1026A000DF90CF900895BC01990F880B990B97FD8F
:1026B0000C942C134AE00C94EB120C9402119C0124
:1026C000240F311D1216130674F5803891055CF540
:1026D000FC0197FF02C0E0E0F0E02138310514F082
:1026E00020E830E02E1BAB014770552781E001C088
:1026F000880F4A95EAF777FF02C0695F7F4F93E042
:10270000759567959A95E1F77695762F6627779573
:102710006795E60FF71FE158FC4F215020F090819C
:10272000982B9193FACF0895DF92EF92FF920F9337
:102730001F93CF93DF937C01D22E8B01040F111DC9
:10274000EB0177FF0EC0C0E0D0E00BC0C417D50787
:102750007CF42D2DAE01B70183E897E00E94650758
:102760002196A801013411058CF340E450E0EECF2E
:10277000DF91CF911F910F91FF90EF90DF9008951F
:102780005F926F927F928F929F92AF92BF92CF9201
:10279000DF92EF92FF920F931F93CF93DF93EC01A1
:1027A0003B01542EF22E102F1195110FE12EE40E45
:1027B000802E912C5C01A80CB91C6034710520F4AA
:1027C0004E2DC5010E945F136301CF0CD11CB601D1
:1027D000615071096034710520F44E2DC5010E94CD
:1027E0005F131F0D7301E80CF91C21E0412FB701A5
:1027F000CE010E949413C50DD11D21E0412FB701D8
:10280000CE0101970E94941321E0402FB701C5012A
:102810000E941411C819D909219722E0402FB7014D
:10282000CE010E941411C818D90881E0C81AD10835
:1028300024E0402FB601CE010E94141128E0402F61
:10284000B601C501DF91CF911F910F91FF90EF90DD
:10285000DF90CF90BF90AF909F908F907F906F90C0
:102860005F900C9414115F926F927F928F929F925F
:10287000AF92BF92CF92DF92EF92FF920F931F938E
:10288000CF93DF939DE6C92E93E0D92EE12CF12C56
:10289000A12CB12C29E0922E39E3832E4CE0742E2A
:1028A000C82FD0E08E2D692D0E945A22990F592EE3
:1028B000550C550C590EE89C812D11248695879D49
:1028C000602C112402E029E14DE560E070E0CE01CA
:1028D0000E94C0134DE56CE070E0CE010E945F13D2
:1028E0008601F60160816A3010F424E001C021E025
:1028F000CE01850D911D820F911D909396078093B7
:102900009507862D90E003969093980780939707FC
:102910008091460190E001978E159F0541F48091CA
:1029200086079091870783709927892B69F0662322
:1029300039F070E080E090E04AE00E94EB1204C0C1
:1029400086E392E00E945D13FFEFCF1ADF0AF801E1
:102950008081A80EB11CFFEFEF1AFF0A82E1E81692
:10296000F10409F09FCFD0939607C09395078BE1B0
:1029700090E0909398078093970788E392E00E94F5
:102980005D13C501DF91CF911F910F91FF90EF90E3
:10299000DF90CF90BF90AF909F908F907F906F907F
:1029A0005F900C9453134091590350915A03209116
:1029B00057033091580342175307B4F49091E8003D
:1029C0009570E1F39091E80092FD19C08093F100B9
:1029D0008091590390915A0301968F739927892BFF
:1029E00019F48EEF8093E8008091590390915A0377
:1029F000019690935A038093590381E0089580E0F3
:102A00000895615030F02091F100FC01208301967F
:102A1000F8CF289884E680935E030895CF93DF93E0
:102A20001F92CDB7DEB7789484B5826084BD84B53B
:102A3000816084BD85B5826085BD85B5816085BDB9
:102A400080916E00816080936E0010928100809171
:102A500081008260809381008091810081608093F9
:102A6000810080918000816080938000809191003E
:102A700082608093910080919100816080939100A9
:102A8000809190008160809390008091C10084606B
:102A90008093C1008091C10082608093C1008091C9
:102AA000C10081608093C1008091C30081608093E8
:102AB000C3008091C00082608093C0008091C200FA
:102AC00081608093C20080917A00846080937A0054
:102AD00080917A00826080937A0080917A00816090
:102AE00080937A0080917A00806880937A001092B7
:102AF0005F0310925C0310925D038091D7008160A8
:102B00008093D70080EA8093D80089B5806189BD21
:102B100089B5826089BD09B400FEFDCF61E070E037
:102B200080E090E00E9486068091D8008F7C8061D2
:102B30008093D8008091E000807F8093E0008091B6
:102B4000E1008E7E8093E1008DE08093E200559A53
:102B5000209AEEEFFFE7859194918B3F9C4D19F4FD
:102B600081E080935B0381EC80937C0085B1806F72
:102B700085B9249884B1866E84B95E9A5F988AB1CB
:102B8000806D8AB9769A6E9881B3806F81BB89987F
:102B900080B38D7080BB80E58CBD81E08DBD85E00C
:102BA00090E00E940C075F9A85E090E00E940C077D
:102BB0005E985C98A8E9EA2EA1E0FA2E1DE01E0DB1
:102BC000F70184910E945F07FFEFEF1AFF0A1E11C1
:102BD000F7CF5C9A81E88093640081E08093650080
:102BE00000E014E080E00E945F0701501109D1F776
:102BF0000E94110787FF1FC05C9885EA0E945F074B
:102C00005C9A2E982F982D98809164008062809312
:102C100064000E945407FDCF2D980E94110784780C
:102C2000843871F00E9411078471843131F188EC8D
:102C300090E00E940C070E94110782FDEDCF3AC080
:102C40000E940A0788EC90E00E940C072F9882E00F
:102C500090E00E94EB1F8F3F29F06FEF82E090E041
:102C60000E94F31F84EF91E00E940C072F9A0E94AC
:102C7000110784788438D9F3D5CF0E940A0788ECED
:102C800090E00E940C072E9882E090E00E94EB1FDB
:102C9000882329F060E082E090E00E94F31F84EF37
:102CA00091E00E940C072E9A0E94110784718431D2
:102CB000D9F3BDCF0E940A0782E090E00E94EB1F8B
:102CC000882331F03E9A3F9A81E080934A0204C003
:102CD00010924A023E983F982E98FEEEEF2EFF2467
:102CE000FA940E94110786FF04C02E9A2F9A2D9AFB
:102CF0003FC02CEFE2162FEFF20619F42E9A2F9810
:102D000006C038E1E316F10411F42F9A2D980E94C1
:102D1000DE1200E128E548EE50E0B70184E190E0E2
:102D20000E94CD110E94CC128BE190E00E940C0712
:102D300080EFE8168FEFF80621F48AEF90E00E940A
:102D40000C079FEFE91AF90AA9E1EA16F10449F61E
:102D50008CEB92E00E940C070E940A07E091830727
:102D6000F09184070190F081E02D83E897E00995C8
:102D700082E390E00E940C070E9411078111F8CFB6
:102D800081E280938A07809164008E7F8093640043
:102D900080917A00806480937A0080917A0086FD29
:102DA000FCCF00917800109179000E94610620E02C
:102DB00030E0980111270027600F711F821F931FB9
:102DC000611571058105910511F00E94BE1E80916B
:102DD0006400816080936400EDE6F3E0B2E1BE0F31
:102DE000B983119229812E13FCCF81E08093460193
:102DF00040E064E680E00E942E0778ECE72EF12C9C
:102E000010E0C7010E94EB1F8F3F09F411E03FEF74
:102E1000E31AF30A8AEDE816F10499F740E060E05E
:102E200080E00E942E0711110E94C40A40E064E66F
:102E300080E00E942E070DE613E068ECE62EF12CF0
:102E4000C7010E94EB1FD8018D938D01BFEFEB1AD4
:102E5000FB0AEAEDEE16F10499F740E060E080E04D
:102E60000E942E07EDE6F3E080E091918F5F9923B9
:102E700019F08231D1F781E08093460140E2842E3F
:102E8000912C53E2252E312C16E12FB7F894809126
:102E9000400290914102A0914202B09143022FBFA3
:102EA00040918F0750919007609191077091920720
:102EB00020919307222341F020918B07821B80935E
:102EC0009407109293079FC484179507A607B70726
:102ED00038F4481B423008F496C40E94540793C447
:102EE00021E02093930780938B0790938C07A09306
:102EF0008D07B0938E0720918A07820F911DA11D27
:102F0000B11D80938F0790939007A0939107B09382
:102F10009207809186079091870701969093870783
:102F20008093860780918807809389070E94110704
:102F3000809388070E94DE121092980710929707DC
:102F4000109296071092950740E060E080E00E94A2
:102F50002E07E0903801F0903901F4E0EF16F1040B
:102F600009F4B2C034F432E0E316F10408F4DBC033
:102F700048C485E0E816F10409F043C400E220E209
:102F80004DEA51E060E070E080E090E00E94CD11F9
:102F90003092960720929507A8E2B0E0B093980788
:102FA000A09397078EE791E00E945D136091460120
:102FB00070E080E090E04AE00E94EB1230929607C9
:102FC00020929507E2E3F0E0F0939807E0939707EB
:102FD0008AE891E00E945D13D0904D02FAE0DF9EF6
:102FE000B0011124695D7F4F08E028E045EA51E017
:102FF00089E190E00E94CD11D1100EC0F0929607A9
:10300000E092950728E230E03093980720939707E5
:1030100085E991E00E945D1380E20E94550E8823AD
:1030200081F080914D0281110CC020914601822FC8
:1030300090E002971CF08FEF820F01C081E0809337
:10304000460180E40E94550E882381F080914D0254
:1030500081110CC020914601822F90E042971CF410
:1030600081E0820F01C082E18093460180E80E94E6
:10307000550E811110924D0280E10E94550E882359
:1030800019F081E080934D0283E20E94331488E0BE
:103090000E94550E882309F4B4C380914D0281111A
:1030A00002C00E947F0980914D02813009F0A9C3BE
:1030B000EDE6F3E0119239813E13FCCF81E080937D
:1030C00046010E94C40A9DC380E20E94331490927C
:1030D00096078092950788E290E0909398078093F6
:1030E000970780914601833120F489E991E00E949D
:1030F0005D1381EA91E00E945D1388E00E94550E05
:1031000081110E947F0984E00E94550E882331F0CE
:10311000A5E0B0E0B0933901A09338010E94720895
:103120000E94070C6EC3EF2809F079C08091480215
:103130009091490280319105ECF02CE030E0309321
:10314000960720939507E8E2F0E0F0939807E09364
:10315000970734E0959587953A95E1F70E945313C8
:1031600028E330E04EE050E060E370E08EE090E075
:103170000E94D00D0E945B092091460230914702C7
:103180004BE0429FF001439FF00D1124EF5FFE4F93
:103190009C01129FC001139F900D1124DC01A356C6
:1031A000B84F1F962D913D914D915C91529767813B
:1031B0007085818592850E942D1F9B01AC010E9424
:1031C0002D1F28E139E746E15FE30E942D1F20E033
:1031D00030E040EA50E40E942D1F23E333E34BEF3D
:1031E00050E40E9408216B017C0120E030E0A9013D
:1031F0000E94082220E030E040E05FE387FD05C048
:10320000C701B6010E949C2004C0C701B6010E94FC
:103210009B200E947A2170934C0260934B0287E3BB
:1032200090E09093960780939507109298071092DC
:10323000970720914602309147024BE0429FC00120
:10324000439F900D11248F5F9E4F0E945D138AEC67
:1032500091E00E945D1380914B0290914C020E947C
:1032600053131092960710929507AAE0B0E0B0931E
:103270009807A093970788EA91E00E945D136091F8
:103280003708709138088091390890913A080E9467
:103290007A219B01205F3F4F37FF02C0215F3F4FE4
:1032A000C90124E0959587952A95E1F7209144027C
:1032B00030914502281B390BB901032E000C880BF5
:1032C000990B37FD09C00E94CE1E20E030E040E09F
:1032D0005FE30E949C2008C00E94CE1E20E030E0E8
:1032E00040E05FE30E949B200E947A2197FF03C089
:1032F0000E942C1303C04AE00E94EB121092960722
:103300001092950710929807109297078EEA91E015
:103310000E945D136091000170E080E090E04AE05F
:103320000E94EB12A0903801B0903901A114B104B1
:1033300009F025C188E00E94550E882309F46EC06B
:103340000E945B097C016091470870914808809158
:10335000490890914A080E9413221E9DF0011F9D6A
:10336000F00D1124E356F84F2785308941895289A1
:103370000E942D1F2B013C012091460230914702F3
:103380004BE0429FC001439F900D1124FC01EF5F71
:10339000FE4FC780D084E184F284A3019201C7016B
:1033A000B6010E942D1F21E738E743E75FE30E9443
:1033B0002D1F60933F0870934008809341089093BD
:1033C0004208C701B6019058A30192010E942D1F27
:1033D0002AE737E34EE95EE30E942D1F609343081E
:1033E00070934408809345089093460810924902D0
:1033F000109248026091370870913808809139081E
:1034000090913A080E947A217093500860934F0877
:10341000E1E0F0E0F0933901E093380140904B088F
:1034200050904C0860904D0870904E0820914708CD
:10343000309148084091490850914A08C301B201AF
:103440000E949C206B017C016093470870934808A0
:103450008093490890934A0820E030E0A9010E9437
:10346000C71E181654F426E636E646E85FE3C701A1
:10347000B6010E94082287FD32C077FA709477F86F
:10348000709440924B0850924C0860924D08709294
:103490004E0820E030E0A901C701B6010E94C71E16
:1034A00087FD12C026E636E646E85FE3C701B601AF
:1034B0000E94082218165CF486E6C82EDC2C86E8EA
:1034C000E82E8FE3F82E03C0C12CD12C7601C092D8
:1034D0004708D0924808E0924908F0924A0880E8EC
:1034E0000E94550E882379F0809146029091470200
:1034F0001816190614F4019702C080E090E090932A
:1035000047028093460280E10E94550E882379F09D
:1035100080914602909147028430910514F40196FF
:1035200002C084E090E090934702809346020E949C
:10353000110786FF09C080914802909149020C96BC
:1035400090934902809348020E94110785FF0FC0A3
:1035500080914802909149028C30910524F05C01E1
:10356000FCE0AF1AB108B0924902A09248020E9452
:10357000110782FF04C0109249021092480202E033
:1035800026E044E46BE070E087E390E00E94C01323
:1035900020E030E040E752E460914708709148082D
:1035A0008091490890914A080E942D1F0E947A211B
:1035B000462F6DE070E089E390E00E945F1320E009
:1035C00030E040E752E460914708709148088091EC
:1035D000490890914A080E942D1F0E947A21462F87
:1035E0006EE070E089E390E00E945F1321E044E028
:1035F0006CE070E085E790E00E9494130E947208EE
:103600000E94070C8091380190913901019709F0CF
:10361000F8C020913F0830914008409141085091F6
:10362000420860913708709138088091390890916C
:103630003A080E949C206093370870933808809362
:10364000390890933A08C0904308D0904408E0901D
:103650004508F090460820913B0830913C08409185
:103660003D0850913E08C701B6010E949C2060931E
:103670003B0870933C0880933D0890933E0820E0FF
:1036800030E040E452E40E94082287FDAAC00E9474
:103690005B096C011C9DC0011D9D900D11249C01B6
:1036A0002356384F7901D90155964C915597549628
:1036B0006C91549753968C910E942E07B4E0CB16D0
:1036C000D10459F50E94E40A20E030E040E851E4DA
:1036D00060913708709138088091390890913A08C4
:1036E0000E949B20609337087093380880933908B4
:1036F00090933A080E945B09FC011E9FC0011F9F26
:10370000900D1124FC01E356F84F80818430E1F2E2
:10371000109239011092380151C020E030E040E4AD
:1037200052E460913B0870913C0880913D08909173
:103730003E080E949B209B01AC0160E070E080E4A9
:1037400092E40E949B2060933B0870933C08809316
:103750003D0890933E08F70183859485A585B6853D
:103760009C01AD01505860914308709144088091CC
:103770004508909146080E942D1F6093430870935E
:1037800044088093450890934608D70117962D91D9
:103790003D914D915C911A9760913F08709140085E
:1037A00080914108909142080E942D1F60933F082C
:1037B00070934008809341089093420820E030E0E5
:1037C00040E05FE360913F087091400880914108BC
:1037D000909142080E94C71E87FF13C00E94E40A0E
:1037E00010C02DEC3CEC4CEC5DE3C701B6010E942F
:1037F0009C206093430870934408809345089093FD
:1038000046080E94CC12E0E0F0E0309709F43DCB8E
:1038100009953ACB0F931F93CF93DF938C0181E0EF
:1038200090E00E94EB1F80FF31C08AE090E00E9490
:10383000EB1F9FEF980F9E3F48F522E330E0D80141
:1038400057963C932E93569728E330E059963C9335
:103850002E935897CBE0D0E0D801ED91FC910190E8
:10386000F081E02D682FC8010995CE010E94EB1F61
:103870002196C131D10581F70E94CC1288EE93E0E8
:10388000DF91CF911F910F910C940C07DF91CF9195
:103890001F910F91089504970C940A1CCF93DF9306
:1038A000C7E3D8E0669789819A810E94292387E03F
:1038B000CD39D807B9F7DF91CF910895CF92DF9234
:1038C000EF92FF920F931F93CF93DF931F92CDB789
:1038D000DEB7182F062FE42E862F880F8E5F998370
:1038E0000E94D31483E00E94D314F12EC12E99813B
:1038F000D92E8C2D8F19801798F4F601E7FE02C09F
:10390000849101C080810E94D314182F80E00E940E
:10391000D3148123FFEFCF1ADF0A8111EACF01C050
:1039200081E00F90DF91CF911F910F91FF90EF9069
:10393000DF90CF9008952F923F924F925F926F92B7
:103940007F928F929F92AF92BF92CF92DF92EF922F
:10395000FF920F931F93CF93DF9300D000D0CDB78A
:10396000DEB7E1E5F8E01382128288EE93E0A0E092
:10397000B0E084839583A683B7838CE591E091833F
:10398000808322242A94322C35862486E7E3F8E0CB
:10399000108211821282138280E090E0A0E4B2E4EF
:1039A00084839583A683B783108611861286138637
:1039B0001486158616861786108A118A128A138A2B
:1039C0008DEC9CECACECBCE3848B958BA68BB78B1D
:1039D000ADE9B7E01C926EEF71E08EE997E00E94CE
:1039E000150680E090E0A0E0BFE38093A4079093E9
:1039F000A507A093A607B093A7079AE9C92E99E94E
:103A0000D92EED2C9EE3F92EC092A807D092A907DB
:103A1000E092AA07F092AB0780E090E0A0E8BFE355
:103A20008093AC079093AD07A093AE07B093AF0718
:103A30001092B00717E31093B1071092B20701E09C
:103A40000093B30766E072E084EB97E00E941506EE
:103A50002DEC422E2CEC522E652C2EE3722E409231
:103A6000BA075092BB076092BC077092BD07812CC9
:103A7000912C30E8A32E3EE3B32E8092BE079092A5
:103A8000BF07A092C007B092C1078FE195E8ABE6EF
:103A9000BFE38093C2079093C307A093C407B0937A
:103AA000C5071092C6071093C7071092C80782E097
:103AB0008093C9076EE072E08AEC97E00E941506D9
:103AC000C092D007D092D107E092D207F092D307EC
:103AD0002DEC3CEC4CE45EE32093D4073093D50707
:103AE0004093D6075093D70763E3C62EDC2CEC2C0B
:103AF0006FE3F62EC092D807D092D907E092DA078A
:103B0000F092DB071092DC0782E38093DD071092CE
:103B1000DE0783E08093DF0766E172E080EE97E0E6
:103B200029833A834B835C830E94150629813A815D
:103B30004B815C812093E6073093E7074093E807C9
:103B40005093E9078AE999E9A9E1BEE38093EA077E
:103B50009093EB07A093EC07B093ED074092EE072C
:103B60005092EF076092F0077092F1071093F207FE
:103B70001093F3071092F40784E08093F5076EE149
:103B800072E086EF97E00E9415061092FC071092F3
:103B9000FD071092FE071092FF0710920008109286
:103BA0000108109202081092030810920408109263
:103BB0000508109206081092070810920808109243
:103BC000090810930A0885E080930B0866E272E00A
:103BD0008CE098E00E941506C0921208D09213085B
:103BE000E0921408F0921508809216089092170837
:103BF000A0921808B092190880E090E0A0E8BFE316
:103C000080931A0890931B08A0931C08B0931D087A
:103C100010921E0810931F081092200886E08093CF
:103C200021086EE272E082E298E00E94150610928E
:103C300028081092290810922A0810922B08C09286
:103C40002C08D0922D08E0922E08F0922F081092A6
:103C500030081092310810923208109233081093F5
:103C600034081093350810933608EFE7F7E0138215
:103C700012821186128680E1838730862782108A1D
:103C8000118A128A138A148A8EE691E091838083C6
:103C90008CE791E095838483178A168A118E108EA3
:103CA000028F138E048F158E0F900F900F900F9030
:103CB000DF91CF911F910F91FF90EF90DF90CF9008
:103CC000BF90AF909F908F907F906F905F904F903C
:103CD0003F902F9008958F929F92AF92BF92CF9274
:103CE000DF92EF92FF92CF93DF93EC0168817981AD
:103CF0008A819B81611571058105910521F464E23A
:103D000079ED8BE597E02DE133EF41E050E00E9443
:103D1000012049015A019B01AC01A7EAB1E40E94CC
:103D200020206B017C01ACEEB4EFA50194010E9450
:103D30002E20DC01CB018C0D9D1DAE1DBF1DB7FFDC
:103D400003C00197A109B04888839983AA83BB83E4
:103D5000BC01CD019F77DF91CF91FF90EF90DF9075
:103D6000CF90BF90AF909F908F9008950E946B1E50
:103D7000089587E491E00E946B1E089560934701C7
:103D8000709348018093490190934A0108950E94DD
:103D9000091F08F481E00895E89409C097FB3EF4F8
:103DA00090958095709561957F4F8F4F9F4F992388
:103DB000A9F0F92F96E9BB279395F6958795779506
:103DC0006795B795F111F8CFFAF4BB0F11F460FFC6
:103DD0001BC06F5F7F4F8F4F9F4F16C0882311F01E
:103DE00096E911C0772321F09EE8872F762F05C032
:103DF000662371F096E8862F70E060E02AF09A95CD
:103E0000660F771F881FDAF7880F9695879597F9C1
:103E10000895990F0008550FAA0BE0E8FEEF16165B
:103E20001706E807F907C0F012161306E407F507AE
:103E300098F0621B730B840B950B39F40A2661F022
:103E4000232B242B252B21F408950A2609F4A140C5
:103E5000A6958FEF811D811D08950E94401F0C942F
:103E6000B11F0E94A31F38F00E94AA1F20F09523C3
:103E700011F00C949A1F0C94A01F11240C94E51FB0
:103E80000E94C21F70F3959FC1F3950F50E0551F1C
:103E9000629FF001729FBB27F00DB11D639FAA279F
:103EA000F00DB11DAA1F649F6627B00DA11D661FEE
:103EB000829F2227B00DA11D621F739FB00DA11D0F
:103EC000621F839FA00D611D221F749F3327A00DC9
:103ED000611D231F849F600D211D822F762F6A2F65
:103EE00011249F5750409AF0F1F088234AF0EE0FCA
:103EF000FF1FBB1F661F771F881F91505040A9F7F7
:103F00009E3F510580F00C949A1F0C94E51F5F3F73
:103F1000E4F3983ED4F3869577956795B795F79532
:103F2000E7959F5FC1F7FE2B880F911D96958795AA
:103F300097F9089597F99F6780E870E060E0089529
:103F40009FEF80EC089500240A94161617061806B1
:103F50000906089500240A9412161306140605068D
:103F60000895092E0394000C11F4882352F0BB0F1E
:103F700040F4BF2B11F460FF04C06F5F7F4F8F4F81
:103F80009F4F089557FD9058440F551F59F05F3FBC
:103F900071F04795880F97FB991F61F09F3F79F06B
:103FA00087950895121613061406551FF2CF4695ED
:103FB000F1DF08C0161617061806991FF1CF86956F
:103FC0007105610508940895E894BB276627772753
:103FD000CB0197F90895F999FECF92BD81BDF89A6A
:103FE000992780B50895262FF999FECF1FBA92BD63
:103FF00081BD20BD0FB6F894FA9AF99A0FBE0196CA
:104000000895052E97FB1EF400940E94182057FD7A
:1040100007D00E946A2007FC03D04EF40C941820AD
:1040200050954095309521953F4F4F4F5F4F0895E4
:1040300090958095709561957F4F8F4F9F4F089514
:104040000E948C20A59F900DB49F900DA49F800D81
:10405000911D11240895B7FF0C9420200E94202068
:10406000821B930B08952F923F924F925F926F9213
:104070007F928F929F92AF92BF92CF92DF92EF92F8
:10408000FF920F931F93CF93DF93CDB7DEB7CA1B79
:10409000DB0B0FB6F894DEBF0FBECDBF09942A88A4
:1040A000398848885F846E847D848C849B84AA844C
:1040B000B984C884DF80EE80FD800C811B81AA81D9
:1040C000B981CE0FD11D0FB6F894DEBF0FBECDBFA4
:1040D000ED010895A1E21A2EAA1BBB1BFD010DC024
:1040E000AA1FBB1FEE1FFF1FA217B307E407F507A8
:1040F00020F0A21BB30BE40BF50B661F771F881F84
:10410000991F1A9469F760957095809590959B0119
:10411000AC01BD01CF010895A29FB001B39FC001C2
:10412000A39F700D811D1124911DB29F700D811DE3
:104130001124911D08955058BB27AA270E94B3202F
:104140000C94B11F0E94A31F38F00E94AA1F20F0F8
:1041500039F49F3F19F426F40C94A01F0EF4E09557
:10416000E7FB0C949A1FE92F0E94C21F58F3BA175D
:10417000620773078407950720F079F4A6F50C947D
:10418000E41F0EF4E0950B2EBA2FA02D0B01B90100
:1041900090010C01CA01A0011124FF27591B99F0BD
:1041A000593F50F4503E68F11A16F040A22F232FC9
:1041B000342F4427585FF3CF469537952795A79519
:1041C000F0405395C9F77EF41F16BA0B620B730BC0
:1041D000840BBAF09150A1F0FF0FBB1F661F771F31
:1041E000881FC2F70EC0BA0F621F731F841F48F4E6
:1041F000879577956795B795F7959E3F08F0B0CF6F
:104200009395880F08F09927EE0F97958795089555
:104210000E941C210C94B11F0E94AA1F58F00E94FA
:10422000A31F40F029F45F3F29F00C949A1F51110D
:104230000C94E51F0C94A01F0E94C21F68F39923E1
:10424000B1F3552391F3951B550BBB27AA27621792
:104250007307840738F09F5F5F4F220F331F441F9F
:10426000AA1FA9F335D00E2E3AF0E0E832D09150D3
:104270005040E695001CCAF72BD0FE2F29D0660FC0
:10428000771F881FBB1F261737074807AB07B0E803
:1042900009F0BB0B802DBF01FF2793585F4F3AF009
:1042A0009E3F510578F00C949A1F0C94E51F5F3FD8
:1042B000E4F3983ED4F3869577956795B795F7958F
:1042C0009F5FC9F7880F911D9695879597F9089577
:1042D000E1E0660F771F881FBB1F62177307840713
:1042E000BA0720F0621B730B840BBA0BEE1F88F722
:1042F000E09508950E9481216894B1110C94E51F06
:1043000008950E94CA1F88F09F5798F0B92F9927E7
:10431000B751B0F0E1F0660F771F881F991F1AF0B0
:10432000BA95C9F714C0B13091F00E94E41FB1E012
:1043300008950C94E41F672F782F8827B85F39F011
:10434000B93FCCF3869577956795B395D9F73EF449
:1043500090958095709561957F4F8F4F9F4F0895F1
:104360000E94F02190F09F3748F4911116F00C94C0
:10437000E51F60E070E080E89FEB089526F41B16CF
:10438000611D711D811D0C94C7210C94E2218823AD
:1043900071F4772321F09850872B762F07C066237E
:1043A00011F499270DC09051862B70E060E02AF03F
:1043B0009A95660F771F881FDAF7880F969587956D
:1043C00097F908959F3F31F0915020F487957795A4
:1043D0006795B795880F911D9695879597F90895DC
:1043E0000E94CA1FA0F0BEE7B91788F4BB279F3808
:1043F00060F41616B11D672F782F8827985FF7CFC6
:10440000869577956795B11D93959639C8F308956C
:104410000E94091F08F48FEF089519F416F40C9404
:10442000A01F0C94E2210E94CA1FB8F39923C9F37C
:10443000B6F39F57550B87FF0E9453220024A0E636
:1044400040EA900180585695979528F4805C660F55
:10445000771F881F20F026173707480730F4621BA4
:10446000730B840B202931294A2BA69517940794A6
:10447000202531254A2758F7660F771F881F20F01F
:1044800026173707480730F4620B730B840B200D97
:10449000311D411DA09581F7B901842F9158880FD6
:1044A00096958795089591505040660F771F881F05
:1044B000D2F70895991B79E004C0991F961708F068
:1044C000961B881F7A95C9F78095089597FB072E4C
:1044D00016F4009407D077FD09D00E94802207FCD3
:1044E00005D03EF4909581959F4F08957095619504
:1044F0007F4F0895EE0FFF1F0590F491E02D099472
:10450000AA1BBB1B51E107C0AA1FBB1FA617B707F9
:1045100010F0A61BB70B881F991F5A95A9F7809515
:104520009095BC01CD010895CF93DF938230910522
:1045300010F482E090E0E091A308F091A40820E05C
:1045400030E0C0E0D0E0309711F140815181481750
:104550005907C0F04817590761F482819381209769
:1045600019F09B838A832BC09093A4088093A3089F
:1045700026C02115310519F04217530718F49A0186
:10458000BE01DF01EF010280F381E02DDCCF2115B8
:10459000310509F1281B390B2430310590F41296AE
:1045A0008D919C9113976115710521F0FB01938307
:1045B000828304C09093A4088093A308FD013296DF
:1045C00044C0FD01E20FF31F819391932250310902
:1045D0002D933C933AC02091A1083091A208232B3F
:1045E00041F420914D0130914E013093A208209367
:1045F000A10820914B0130914C012115310541F466
:104600002DB73EB740914F0150915001241B350BFF
:10461000E091A108F091A208E217F307A0F42E1B85
:104620003F0B2817390778F0AC014E5F5F4F241716
:10463000350748F04E0F5F1F5093A2084093A10822
:104640008193919302C0E0E0F0E0CF01DF91CF9140
:1046500008950F931F93CF93DF93009709F48CC0B5
:10466000FC013297138212820091A3081091A408D2
:104670000115110581F420813181820F931F209152
:10468000A1083091A2082817390779F5F093A208FC
:10469000E093A10871C0D80140E050E0AE17BF0719
:1046A00050F412962D913C911397AD0121153105CF
:1046B00009F1D901F3CF9D01DA01338322836081AF
:1046C0007181860F971F8217930769F4EC01288187
:1046D0003981260F371F2E5F3F4F318320838A8118
:1046E0009B8193838283452B29F4F093A408E09364
:1046F000A30842C01396FC93EE931297ED014991E3
:1047000059919E01240F351FE217F30771F4808140
:104710009181840F951F029611969C938E938281AE
:10472000938113969C938E931297E0E0F0E0D8016A
:1047300012968D919C911397009719F0F8018C01B6
:10474000F6CF8D919C9198012E5F3F4F820F931F62
:104750002091A1083091A2082817390769F43097F1
:1047600029F41092A4081092A30802C013821282A6
:104770001093A2080093A108DF91CF911F910F9190
:104780000895A0E0B0E0E7ECF3E20C943720EC01F0
:10479000009721F4CB010E949422B8C0FC01E60FDF
:1047A000F71F9C0122503109E217F30708F4ACC04F
:1047B000D9010D911C91119706171707B0F005301C
:1047C000110508F49FC0C80104978617970708F4DD
:1047D00099C002501109061B170B019311936D9399
:1047E0007C93CF010E9429238DC05B01A01AB10ADE
:1047F0004C01800E911EA091A308B091A40840E046
:1048000050E0E12CF12C109709F44AC0A815B90525
:10481000D1F56D907C901197630182E0C80ED11C98
:10482000CA14DB0480F1A3014A195B096A0182E022
:10483000C80ED11C1296BC9012971396AC91B5E09D
:10484000CB16D10440F0B282A38351834083D901B7
:104850006D937C930AC00E5F1F4FC301800F911FA1
:10486000F90191838083EB2DFA2FE114F10431F0EB
:10487000D7011396FC93EE93129744C0F093A408CB
:10488000E093A3083FC08D919C9111974817590759
:1048900008F4AC017D0112960D90BC91A02DB3CF10
:1048A0008091A1089091A20888159905E1F4461716
:1048B0005707C8F480914B0190914C01009741F447
:1048C0008DB79EB740914F0150915001841B950BBD
:1048D000E817F907C8F4F093A208E093A108F901DA
:1048E000718360830FC0CB010E9494227C010097EA
:1048F00059F0A801BE010E949024CE010E942923F4
:10490000C70104C0CE0102C080E090E0CDB7DEB7A1
:10491000EEE00C94532081E090E0F8940C94A024F5
:10492000FB01DC0102C001900D9241505040D8F7CC
:104930000895FB01DC0101900D920020E1F708953C
:1049400014E0C3E8D4E004C0FE010E947A2221965C
:0A495000C438D107C9F7F894FFCF6F
:10495A0001445249564500000000704149524F4EE9
:10496A00000000000040414D415348494500000005
:10497A00104153504F4F4E00000000C04050555454
:10498A0054455200000080400500FFFFFFFF00E190
:10499A0000000000000001010000000000A50880DE
:1049AA000000C1808100000000000000710CF20CC0
:1049BA00920C870CD80C960CB40C000000008307EC
:1049CA00AE04EC05EB050A1CFCFF00004B1C506C06
:1049DA00617920486F6C65202300526573657420E5
:1049EA0043617264003C203E00413A4E45585420CF
:1049FA0000423A4D454E5500524553543A004849F3
:104A0A00543A00484F4C45202300444953543A0035
:104A1A00207961726473005041523A00484F4C4504
:104A2A0020494E204F4E452121210050415200423B
:104A3A004F47455900444F55424C4520424F47493C
:104A4A004500504152202B004F5554212100464128
:104A5A004952574159004752415353202000524F5F
:104A6A0055474820200042554E4B45522000574199
:104A7A00544552202000475245454E202000484FB9
:104A8A004C45202020002D0053636F72653A0000C8
:00000001FF
